:020000040800F2
:10000000D04200209D010008E14A00083145000867
:10001000DF4A00083F090008D17200080000000014
:10002000000000000000000000000000114E000869
:100030007D0E000800000000FD4B00086D51000817
:10004000B7010008B7010008B7010008B7010008B0
:10005000B7010008B7010008B7010008B7010008A0
:10006000B7010008B7010008B7010008B701000890
:10007000B7010008B7010008B7010008B701000880
:10008000B7010008B701000815090008B70100080A
:10009000B7010008B7010008B7010008B701000860
:1000A000B7010008B7010008B7010008B701000850
:1000B00035520008B7010008B7010008B701000871
:1000C000B7010008B7010008B7010008B701000830
:1000D000B701000851570008B7010008B701000830
:1000E000B7010008B7010008B7010008B701000810
:1000F000B7010008B7010008B7010008B701000800
:10010000B7010008B701000841520008B701000814
:10011000B7010008B7010008B7010008B7010008DF
:100120003D0E0008B7010008B7010008B70100083C
:10013000B70100080000000000000000B70100083F
:10014000B7010008B7010008B7010008E54A000838
:10015000B7010008B7010008B7010008B70100089F
:10016000B7010008B7010008B7010008B70100088F
:10017000B7010008B70100080000000000000000FF
:10018000B7010008B7010008DFF80CD000F0B0FBA1
:1001900000480047D1740008D0420020064880473C
:1001A00006480047FEE7FEE7FEE7FEE7FEE7FEE75C
:1001B000FEE7FEE7FEE7FEE725520008890100089A
:1001C0002DE9F05F0546002092469B46884606468C
:1001D000814640241BE0284641464746224600F01F
:1001E0005DFA53465A46C01A914110D3114618463B
:1001F000224600F044FA2D1A67EB01084F462246CA
:100200000120002100F03BFA17EB00094E41201EAF
:10021000A4F10104DFDC484631462A464346BDE8E6
:10022000F09FD2B201E000F8012B491EFBD27047CB
:100230000022F6E710B513460A4604461946FFF7B2
:10024000F0FF204610BD2DE9FE4F804681EA0300F5
:10025000C00F0C46009021F0004123F00045B8EBA0
:100260000200A94105D24046214690461C460B4655
:10027000024623F00040104347D0270DC7F30A0081
:10028000C3F30A510290401A019040286BDAC3F37D
:10029000130040F4801B0098924620B10023D2EB5B
:1002A000030A63EB0B0B01985946C0F1400250461C
:1002B00000F0E5F906460D4650465946019A00F011
:1002C000FDF910EB08006141002487EA115284EA2D
:1002D000E7731A4340D0009A62B3019A012A4FEAA9
:1002E000075215DC001B61EB02014FF0004202EAED
:1002F0000752CDE90042001C41F5801132462B46E1
:1003000000F034FA03B0BDE8F08F40462146F9E72B
:10031000001B61EB0201001C41F5801300185B41DA
:100320002018A2F5001747EB030140EAD570B61973
:100330006D4111E06D084FEA360645EAC0754FEA97
:100340000752001B61EB0201001C41F580114908B6
:100350004FEA30000019514132462B4603B0BDE848
:10036000F04F00F0F4B90098012240000023D0EBD8
:10037000020263EBE073009821464FEAE074B8EBA9
:10038000000061EB0401E9E783F000435BE781F0E3
:10039000004158E72DE9FE4F81EA030404F00044D0
:1003A00021F0004100944FF0000B23F0004350EA8D
:1003B00001045ED052EA03045BD0C3F30A54C1F3D4
:1003C0000A552C44A4F2F3340194A0FB0254C1F367
:1003D000130141F48011C3F3130343F4801301FBB1
:1003E000024400FB034E840A970A44EA815447EA18
:1003F0008357A4FB076802958D0A05FB07854FEA22
:10040000932C04FB0C542705029D4FEA065847EA3B
:100410001637B5EB08056EEB070C870E920E47EA10
:10042000811742EA8312A7FB0201B6EB0B0164EBD2
:1004300000042B0D43EA0C335E1844EB1C50DA46E3
:100440005146E7FB0201C5F313044FEA0B3343EABD
:1004500014534FEA0432019C43EA0603A4F10C044E
:100460000294009CCDE900B400F080F903B0BDE82F
:10047000F08F00200146F9E72DE9F04D81EA0304F1
:1004800004F0004B21F0004514464FF0000A23F021
:10049000004150EA050220D054EA01021DD0C5F304
:1004A0000A570246C5F31303C1F31300C1F30A56FA
:1004B00040F4801543F48013A7EB0608101BD646C2
:1004C00008F2FD3873EB050002D308F1010801E0E2
:1004D00092185B41B8F1000F03DA00200146BDE835
:1004E000F08D00204FF48011064684460EE0171B65
:1004F00073EB050705D3121B63EB050306434CEAB8
:10050000010C49084FEA300092185B4150EA01079C
:10051000EDD152EA030012D082EA040083EA050119
:10052000084305D0101BAB4106D20122002306E090
:1005300000224FF0004302E06FF0010253101AEB6B
:1005400006004CEB085110EB0A0041EB0B01BDE833
:10055000F04D00F0FCB830B5041E71F1000404DB6E
:100560004FF00044404264EB0101141E73F100049B
:1005700005DB1C464FF00043524263EB0403801A34
:10058000994101D3012030BD002030BDF0B4CA171D
:10059000CB0F50405140C61841F100054FEAC372DD
:1005A000314628004FF0960303D0B623F0BC00F08C
:1005B000A0B830460021F9E70EB5C10F80EAE0701F
:1005C0000844CA07002140F233438DE80E000A4672
:1005D0000B4600F0CBF803B000BD0EB540F233413E
:1005E00002910021CDE900110A460B4600F0BEF849
:1005F00003B000BD00F0004230F000400AD0C10D51
:1006000001F56071C0F3160042EA0151C2084007CB
:100610001143704700200146704701F0004330B499
:1006200021F0004150EA010206D00A0DA2F56072E5
:10063000C1F31301002A02DC30BC00207047440FD4
:1006400044EAC104C100E01830BC00EBC25000F025
:1006500047B830B50B46014600202022012409E0AE
:1006600021FA02F59D4205D303FA02F5491B04FA6B
:1006700002F52844151EA2F10102F1DC30BD202A4A
:1006800004DB203A00FA02F1002070479140C2F1E9
:10069000200320FA03F3194390407047202A04DB1B
:1006A000203A21FA02F00021704721FA02F3D040EB
:1006B000C2F120029140084319467047202A06DB08
:1006C000CB17203A41FA02F043EAE07306E041FA20
:1006D00002F3D040C2F1200291400843194670470E
:1006E0000029A8BF7047401C490008BF20F0010046
:1006F000704710B4B0FA80FC00FA0CF050EA010424
:1007000004BF10BC704749B1CCF1200421FA04F4B5
:1007100011FA0CF118BF012121430843A3EB0C018E
:10072000CB1D4FEA00614FEA102042BF002010BCF1
:10073000704700EBC35010440029A4BF10BC7047A1
:10074000401C490008BF20F0010010BC704710B5E4
:10075000141E73F1000408DA401C41F100019218E4
:100760005B411A4301D120F0010010BD2DE9F04D8D
:1007700092469B4611B1B1FA81F202E0B0FA80F2E2
:1007800020329046FFF77BFF04460F4640EA0A00FE
:1007900041EA0B0153465A46084313D0114653EA27
:1007A000010019D0C8F140025046FFF777FF054617
:1007B0000E46504659464246FFF761FF084305D0B2
:1007C000012004E020463946BDE8F08D00200543B5
:1007D00046EAE0762C4337430A986305E40AA0EB27
:1007E00008000022FD0A44EA47540A3002D50020DE
:1007F0000146E9E7010510196941DDE908450019DD
:100800006941BDE8F04DA2E72DE9FE4FC3F30A5759
:1008100001F000450024C1F30A56C3F31303C1F3EA
:10082000130143F4801312EB020AA64641F480112F
:10083000009543EB030CA7F1010B16E0B0EB0A00A7
:1008400061EB0C01071E71F1000707DA4FF0000899
:10085000D0EB080085F0004568EB0101171A73EB37
:100860000107EBD3761E001849415E45F6DA50EADF
:10087000010209D0CDE900E5002213460296FFF7F8
:1008800075FF03B0BDE8F08F20460099F9E7C1F38A
:100890000A52C1F3130140F2FF3341F480119A422E
:1008A00002DA00200146704740F233439A42A2F236
:1008B000334202DC5242FFF7F1BEFFF7E0BE000018
:1008C00030B5041E71F1000404DB4FF000444042D7
:1008D00064EB0101141E73F1000405DB1C464FF0AC
:1008E0000043524263EB0403994208BF904230BD7B
:1008F000064C074D06E0E06840F0010394E807006D
:1009000098471034AC42F6D3FFF742FC5C880008ED
:100910007C880008014800F075BF00BF1836002031
:1009200010B590ED080A044606F050FD84ED100A5B
:1009300094ED080A06F00CFE84ED110A10BDFEE7E6
:100940002DE9F8432DED048BCB4D28780138042890
:1009500000F28081DFE810F005006E009600FE00D6
:100960003200012006F086FD02222A70C44AC34FDD
:1009700014784FF07E500021C7E91011B864282088
:10098000E201C7E90B2020467963FFF726FE9FEDC1
:10099000B80B53EC102BFFF7FDFC054604EB84006D
:1009A00080020E46FFF708FE02460B4628463146F7
:1009B000FFF762FDFFF731FEF8634BE1AF4C00201B
:1009C000E064E16AB14A00EE101AB8EEC00A30EEF7
:1009D000001A9FEDAF0A88420ADA92ED002A04322B
:1009E00082EE012A013030EE020A84ED130AF2E7AA
:1009F000A348007801EE100AB8EE411A20EE010A71
:100A000010EE100AFFF7F6FD9FED991B41EC100B5D
:100A100006F014FE51EC100BFFF7FFFDE06402201E
:100A200006F028FD9B48002100684163816329701E
:100A3000C1630FE1914E924CB06C0027C6E90007EC
:100A400020462762FFF76CFF96EC020A06F10801C8
:100A5000204604F000F996ED020AD6ED030A894813
:100A6000DFED891AB2EE0A1A04F0D4F9706B411C5A
:100A7000716342F20F718842C0F2EC80032028704B
:100A80007763E7E07D4E96ED0F0A96ED101A30EE93
:100A9000010A86ED100AB06BF16A884280F2CD80BF
:100AA000774CB06C0027C6E90007204684ED080AA1
:100AB000FFF736FF96EC020A06F10801204604F023
:100AC000CAF896ED020AD6ED030A6E48DFED6E1AFB
:100AD000B2EE0A1A04F09EF900F0D2F9D6E90C0140
:100AE00001384A1C81427263C0F2B480207896EDCE
:100AF000100A01EE100AB8EE411A80EE010A94EDD8
:100B0000078A38EE409A19EE100AFFF773FD044683
:100B100053A0B5EEC09A0D46F1EE10FAB8BF0830FA
:100B200090ED000B51EC100B9FED510B53EC102B83
:100B3000FFF730FC22462B46FFF785FBFFF76DFDE4
:100B4000B16B524A86ED118A42F82100481CC6E971
:100B50000D707FE0494EB06B002875D4B06C4FF03B
:100B60000008C6E9000896ED0F0A96ED101A444CED
:100B700031EE400A204686ED100A84ED080AFFF7A0
:100B8000CFFE96EC020A06F10801204604F063F855
:100B900096ED020AD6ED030A3A48DFED3B1AB2EEB3
:100BA0000A1A04F037F900F06BF9D6E90C010138A4
:100BB0004A1C814272634DDB207896ED100A01EEEB
:100BC000100AB8EE411A80EE010A94ED078A38EE59
:100BD000409A19EE100AFFF70DFD044620A0B5EE6D
:100BE000C09A0D46F1EE10FAB8BF083090ED000B38
:100BF00051EC100B9FED1E0B53EC102BFFF7CAFBB3
:100C000022462B46FFF71FFBB76BDFF880900446A8
:100C100059F827000D46FFF7EDFC02460B4620462B
:100C20002946FFF710FBFFF7F8FC49F82700781E6C
:100C300086ED118AC6E90D800CE0002104220138FE
:100C40002A70C6E90D1005E000203064C6E90D00E9
:100C500005202870BDEC048B01B0BDE8F08300BF17
:100C60000000000000000000000000000000F03F55
:100C7000EA2E4454FB211940080000208401002082
:100C8000DC3D0020743E0020004083453C170020DE
:100C9000000000004C3C00200020704700207047FE
:100CA00010B543F23C34C2F2000440F6FC61C2F2DB
:100CB00000012046002204F01FFF40F2FC61C2F256
:100CC0000001204604F00AFF002010BD70B543F279
:100CD0003C360446C2F200060D463046214604F07A
:100CE000FDFE304604F0D4FE2A8843F62450C2F2BA
:100CF000000021464FF6FF7303F0BBFB20784F380E
:100D00004FEA301005285ED8DFE800F02C320303EC
:100D1000094B43F6D850C2F2000004214CE043F6E0
:100D2000D850C2F20000032101706278D4F80200AA
:100D30003F2A00BA49D02F2A52D01F2A3DD141F272
:100D40003871C2F2000101220A7043F6C061C2F29A
:100D500000018860FFF74EFC024627A00B4606F014
:100D60005DFC2AE043F6D850C2F20000002123E0E7
:100D700028683A281BD143F63860C2F200000438D4
:100D8000211F0E22D1F80630013A1BBA40F8043F69
:100D900001F10401F6D143F6D850C2F2000002215D
:100DA0000AE043F6D850C2F20000052104E043F601
:100DB000D850C2F200000121017043F67060C2F207
:100DC000000001210160002070BD41F23872C2F2C2
:100DD0000002117043F6C061C2F200010860ECE746
:100DE00041F23871C2F2000102220A7043F6C0617A
:100DF000C2F200014860E0E725660D0A000000002D
:100E00000020704710B543F23C32C2F20002D2F823
:100E1000BC22D2F81432002B1CBF012010BD43F2BB
:100E20003C34C2F200040A460146204604F064FE47
:100E30002046BDE8104004F0FDBE0000014800F06F
:100E40008DBF00BF8836002010B501686FF00F021B
:100E500052FA81F21823B2FBF3F306A4E35C40F2EA
:100E6000FF34A1435F2A88BF0431C0E91613084646
:100E700010BD00BF000610160006101670470000D7
:100E80002DE9F84F2DED124B03F0F6FEF24D014621
:100E90002860B0F5804F28BF4FF48041411A43F6D7
:100EA000FF7B594421EA0B01401A20EAE071091A3C
:100EB00059446FF30D0100EB0108C5F80480D5E932
:100EC0000490D5F808A0AC69C5F808800390E869DB
:100ED000FFF790FB9FEDD60BCDE9041053EC102BE0
:100EE000CDE90623FFF756FA064620460F46FFF7E0
:100EF00081FB02460B4630463946FFF7A4F9FFF75F
:100F00008CFB0646A861A8EB0A000146B0F5005F1D
:100F1000A8BF4FF40051411A59446FF30D01401A14
:100F2000CE4910F5005FC8BF0146091A59446FF356
:100F30000D010844039A19EB000142EBE07200EE48
:100F4000106A296100906A61BDEEC00A10EE100AB5
:100F5000A8EB000000EE100ACDF80C80B8EEC0AA95
:100F60009FEDBF0A9FEDC48AB4EEC0AAF1EE10FA5D
:100F700002DD3AEE08AAF7E79FEDBA0A9FEDBA9AAA
:100F8000B4EEC0AAF1EE10FA02DA3AEE09AAF7E7D7
:100F9000286BCDE90121FFF72DFBDDE90623FFF7E3
:100FA000F9F907461AEE100A0C46FFF723FB05462F
:100FB0008946384621462A464B46FFF7EBF9044658
:100FC00030460F46FFF716FB02460B4620463946D1
:100FD000FFF739F9FFF721FB00EE100AB4EEC90A5A
:100FE000F1EE10FA02DD30EE080AF7E79A4CB5EEA2
:100FF000C00AF1EE10FA02DA30EE090AF7E79FEDC7
:101000009BAA84ED060A20EE0A0A10EE100AFFF7EA
:10101000F1FA9FED890B5AEC108B42465346FFF7CD
:10102000B9F9FFF7FAFA924E8346F061606BFFF769
:10103000E1FADDE90623FFF7ADF92A464B46FFF753
:10104000A9F9DDE90432FFF7FEF8FFF7E6FA814679
:10105000E061307896ED06CA01EE100A00EE10BA93
:101060000590B8EE411A10EE01CA9FED790BB34618
:101070000BEE109A54EC105B1CEE100AFFF7BAFA54
:101080004246534606460F46FFF765FA50B93046CA
:1010900039462A462346FFF7D6F8FFF7BEFA0CEE8C
:1010A000100AE9E78BED08CADFF8ACB1B0EECB1A55
:1010B0009BED0F0AB4EEC01AF1EE10FA07DA002029
:1010C0009FED6CBACBF81C00B6EE00CA04E00098A5
:1010D0009FED68CA00287BDD039ADDE90110B0EEC0
:1010E0004C0A01EE102A8BED0E0AB8EEC11A30EE52
:1010F00001CAB4EEC9CAF1EE10FA04DD3CEE08CA2A
:10110000F7E73CEE09CAB5EEC0CAF1EE10FAF8DB1B
:10111000FFF73CFA00EE100A20EE0A1A01EE080A68
:1011200000EE0A1A8BED081A9BED090A9FED531A7F
:1011300020EE010A10EE100AFFF75CFA2BEE0A0A05
:10114000044610EE100A0D46FFF754FA9FED3C0BD3
:1011500053EC102BFFF71EF922462B46FFF773F8CE
:10116000FFF75BFA8146CBF824001CEE100AFFF76C
:1011700041FA42465346FFF70DF9064605980F46D9
:10118000FFF72BFA05460C46304639462A462346D9
:10119000FFF700F99FED2C0B53EC102BFFF7FAF83B
:1011A000FFF73BFACBF828004846FFF723FA424600
:1011B0005346FFF7EFF82A462346FFF7EBF8FFF711
:1011C0002CFACBF82C00BDEC124B01B0BDE8F08F2F
:1011D00029D44846FFF70EFADDE90623FFF7DAF8CF
:1011E0000446DBF838000D46FFF704FA02460B46CA
:1011F00020462946FFF727F8FFF70FFA00EE100AFE
:10120000B7EE001AB4EEC10AF1EE10FAC8BFB0EEA4
:10121000410AB5EEC00A039ADDE90110F1EE10FAB9
:10122000FFF65DAF5DE7B7EE00CA55E700BF00BF50
:101230002D431CEBE2360A3FEA2E4454FB211940B1
:101240007B14AE47E17A843F000000000000103FAD
:10125000EA2E4454FB2119C09802002000E0FFFF51
:1012600000000046000000C60000804600008038F4
:10127000DC3D002000000000000080C6A4707D3F1F
:1012800010B5114C0020A063C4E90000A06004F177
:1012900010002021FEF7CCFF0C480D492063606B45
:1012A0006163FFF7A7F99FED060B53EC102BFFF7D7
:1012B00071F8FFF7B2F9E06310BD00BF00BF00BFD7
:1012C0002D431CEBE236FA3E9802002000007A45DE
:1012D0000024744AEFF3108072B6FEE7B0B51B4DE0
:1012E000194CD5E906120020C4E9041018482264FC
:1012F000194A007828321749012808BF01F108026D
:1013000010686064204603F0F3FB04F1300003F042
:10131000EFFBA06AA26D00EE100AC5E900020F48BB
:1013200005F1080100EE902A03F095FC95ED020A04
:10133000D5ED030A0A48DFED0B1AB2EE0A1ABDE832
:10134000B04003F067BD00BF3402002084010020DC
:1013500038170020C03E0020D4010020DC3D0020D2
:10136000743E002000408345B0B547F61021C1F619
:10137000FF7108688A68801808BFB0BD40F2F005A8
:10138000C2F200054C68A91C082203F0D3F805F14D
:10139000120120460422BDE8B04003F0CBB80000A3
:1013A000F0B590F83C20012A01D1022195E00122FC
:1013B00080F83C20D1F800C01FFA8CFE4FEA4E03A3
:1013C00013FA8CF4BCF10A0F04D303681E3C03F13A
:1013D0000C0602E0036803F1100607273268A740F5
:1013E000BA4332608A683E4FA2403468224332607A
:1013F0009A6B22F440129A634C680A698E699D6B5D
:1014000007EB0257A21A3D4303329D63D5B2AD00EC
:1014100055FA82F21F259F6B954027EA05059D63CB
:101420009D6B0EFA02F22A439A639A6822F47022A4
:101430009A602C4A9D68964202D125F4401509E035
:1014400045EA06029A609A6822F440129A60CA69D4
:101450009D6815439D600A7D4D7D5E68002D46F4B4
:10146000806708BF26F480675F605D68002A45F4E6
:10147000805608BF25F48056032C5E6008D0022CED
:1014800009D0012C14BF03F1200403F1140404E07B
:1014900003F11C0401E003F11804226840F6FF7513
:1014A000AA432260C968226811432160D149A1F58D
:1014B000417293420ED1BCF1120F03D10A6842F47B
:1014C000800206E02CF00102102A03D10A6842F4DF
:1014D00000020A60002180F83C100846F0BD00BF01
:1014E0000000F0FF01000F002DE9F84FDFF8488100
:1014F0000468D8E9011AE06B401A00B2FFF75CF803
:101500009FED4B0B55EC106B32462B46FEF742FF1E
:10151000FFF783F8DFF824B1DFF82491CBF8080057
:10152000C9F810000746606CA0EB0A0000B2FFF794
:1015300043F832462B46FEF72DFFFFF76EF801EE1B
:10154000107A00EE100AB1EE412ACBF8100032EE0C
:10155000400A8BED030A30EE000A30EE010A9FEDDF
:10156000391A20EE010A89ED050AFFF789FC584671
:10157000FFF7D6F99BED100A99ED053A9BED111A8C
:1015800099ED042A23EE004A02EE414A23EE011AA5
:1015900002EE001A2C484FF4805189ED061A89EDAD
:1015A000074A00F005FE29480078052830D8DFE812
:1015B00000F003270B121E31264C206840B303F0C5
:1015C00087FD06F00BF821E0224C206800B303F001
:1015D0005DFD052018E01F4C2068012804D104207F
:1015E00005F048FF00202060FFF778FE19E0194C55
:1015F000206810B1012088F80000FFF7A1F905E08C
:10160000144C206820B1062005F034FF0020206033
:10161000BDE8F88F0E4840F21A41006841638163CB
:10162000C16303F089FDBDE8F84F05F079BF00BF45
:10163000C0A2D614B8819B3F08000020DC3D0020EA
:10164000840100203ACD133F00080240D83D00201D
:101650004C3C0020703E002018B50021009190F80D
:101660003C10012904BF022018BD012180F83C1064
:1016700001688A68D20710D18A68604B42F0010283
:101680008A605D4A1268B2FBF3F202EB42020092FA
:10169000009A12B1009A013AF9E78B68026CDB07F5
:1016A00007D142F010010164416C41F00101416435
:1016B0002CE043F201039A4302F580520264026C6B
:1016C000134BD2055CBF002242646FF004020A6033
:1016D0004A6842F080024A60002280F83C20D3F839
:1016E00004038A684C6802F4401204F48064C00663
:1016F00005D00020994201D1224303D018BD54EAFD
:10170000020003D1886840F480008860002018BD82
:1017100000200140F8B50022009290F83C20012AF8
:1017200001D1022164E0012280F83C200A681FFAFE
:1017300082FC4FEA4C0414FA82F50A2A04D30468A6
:101740001E3D04F10C0602E0046804F110060727B0
:101750003368AF40BB4333608B68AB4035682B4385
:1017600033604D68062D05D805EB850304F134017F
:101770005D1F0BE005EB85060C2D87BF04F12C01E6
:10178000A6F1410504F13001A6F123051F230E68DF
:10179000AB4026EA03030B600CFA05F30D682B43FC
:1017A0000B60B049A1F541739C421ED1122A04D1AD
:1017B0000A6842F480020A6017E022F00103102B4D
:1017C00013D10B68102A43F400030B600DD10A49B2
:1017D0000A4A0968B1FBF2F101EB8101490000916D
:1017E000009911B100990139F9E7002180F83C1006
:1017F0000846F8BD042301403800002040420F0095
:101800007047704770B50446006806684568B107C0
:1018100017D515F0200114D0216CC90603D4216C12
:1018200041F400712164816811F0405F02D1217E92
:10183000002965D02046FFF7E3FF20686FF0120112
:101840000160710714D515F0800111D0216CC90613
:1018500003D4216C41F400512164816811F4401FCC
:1018600021D02046FFF740FE20686FF00C01016098
:10187000F10706D015F040011CBF01685FEAC17195
:1018800032D1B1060ED515F080610BD0616C6FF0CE
:10189000200541F00201616405602046FFF7B1FFB9
:1018A0002068056070BD816B11F4401F02D0816813
:1018B0004905D6D441684905D3D4816811F0405F09
:1018C000CFD1217E0029CCD1416821F08001416037
:1018D000206C20F480502064206CC005C1D4206CA2
:1018E00040F001002064BCE7206C40F480302064AC
:1018F000204600F0BFF820686FF001010160C0E7EA
:10190000C16A11F4700F02D08168490592D4416810
:1019100021F020014160206C20F480702064206C54
:10192000C0043FF587AF206C40F00100206481E7E0
:10193000002841D070B50446006C30B9204600F054
:101940009BF8002084F83C006064206CC00635D40D
:10195000206C41F202118843023042492064086839
:1019600020F44030086094E80D0025690E68324389
:101970000A60416821F480714160416841EA0521B3
:101980004160416821F04071416041681943416004
:101990008168354B21F400618160E1688268114300
:1019A0008160816821F070618160A26A81689A42D9
:1019B00006D121F040510CE00120704701204CE09D
:1019C00011438160816821F040518160E16A826841
:1019D00011438160816821F002018160217E94F8C9
:1019E0002020836843EA4101816041686AB141F483
:1019F0000061416041681D4A21F460414160616AB3
:101A000002EB41314268114301E021F40061416081
:101A1000C16A174B21F47001C162E269616903EB8D
:101A20000252C36A1A43C262826822F40072826060
:101A300094F83020836843EA42228260826822F46C
:101A400080628260826842EA812181600020606455
:101A5000216C012262F301012164002184F83C1011
:101A600070BD00BF042301400100000F00E0FFFF34
:101A70000000F0FF704700002DE9F04186B00446F9
:101A800001A81421FEF7D4FB2068314FB8425BD186
:101A900000268848009641694FF0030841F48071A0
:101AA0004161416901AD01F4807100910099009696
:101AB000016841F004010160016801F00401009136
:101AC00000990096016841F0010101600068294613
:101AD00000F001000090009832200396CDF80880B5
:101AE000019007F5684000F08DFAC020CDE902862C
:101AF000019007F56040294600F084FA154D4FF437
:101B00000030154FC5E908064FF480704FF480414E
:101B10004FF480524FF48063C5E90076C5E9026650
:101B2000C5E90432C5E90610284600F0CFF908B12E
:101B3000FFF7D0FB122000210022AC63A56300F068
:101B4000B7FB122000F0A6FB06B0BDE8F08100BF95
:101B500000200140883600201064024070B5C0B1FA
:101B6000044690F8200010B9204600F06FF8206875
:101B7000016841F00101016000F028FB0546206882
:101B80004168C90707D100F021FB401B0B28F6D3A1
:101B900011E0012070BD016821F00201016000F038
:101BA00015FB05462068416889070BD500F00EFB40
:101BB000401B0B28F6D3606A052140F400306062B8
:101BC000012040E0217E0268012922F0800308BF45
:101BD00042F080030360617E0268012922F0400325
:101BE00008BF42F040030360A17E0268012922F091
:101BF000200308BF42F020030360E17E0268012950
:101C000042F0100308BF22F010030360217F026836
:101C1000012922F0080308BF42F008030360617F36
:101C20000268012922F0040308BF42F004030360A4
:101C3000261D6ECE1A432A43324301391143C16136
:101C400000200121606284F8201070BD10B586B0BC
:101C5000044601A81421FEF7EBFA216814488142DA
:101C600024D10021134A0091136900F5D03043F0CC
:101C700000731361136903F000730093009B0091DC
:101C8000136843F002031360126802F0020200922C
:101C9000092205920322CDE90312022102914FF499
:101CA00040710191009901A900F0ACF906B010BD96
:101CB000006400403038024070B5866D044600F084
:101CC00085FA054694F8350002281ED12068216C5B
:101CD000026822F016020260426922F0800242612C
:101CE00009B9A16C19B1016821F00801016001680E
:101CF00021F0010101600068C0070AD000F066FA17
:101D0000401B05280FD82068F5E78020606501207A
:101D10000EE0E06D3F2101FA00F0B060012084F890
:101D20003500002004E020206065032084F83500A1
:101D3000002184F8341070BD90F83510022909D1C3
:101D4000052180F835100068016821F0010101606B
:101D5000002070478021416501207047F8B5044696
:101D600000200090D4E91660574A082115683768AA
:101D7000814039420CD0226813685B0708D513688C
:101D800023F004031360B160616D41F001016165EE
:101D900001218140394208D022685269120604D5D7
:101DA000B160616D41F002016165042181403942F9
:101DB00008D022681268920704D5B160616D41F0C5
:101DC0000401616510218140394217D02068026802
:101DD000120713D5B16002680168520306D4C90521
:101DE00006D4016821F00801016001E0080301D474
:101DF000216C00E0A16C09B120468847E16D2020EC
:101E000000FA01F23A423BD020680368DB0637D57E
:101E1000B26094F835300268052B19D122F0160211
:101E20000260426922F080024261226C0AB9A26C0F
:101E30001AB1026822F0080202603F208840B060B8
:101E4000002084F83400012084F83500216D37E04B
:101E5000016852030CD4C9050ED4016821F01001A9
:101E60000160002084F83400012084F8350003E08C
:101E7000080301D4616C00E0E16B09B1204688479A
:101E8000606D00B3606DC00719D0052184F835106E
:101E900021684FF416500A68B5FBF0F022F00102F9
:101EA0000A60009A01328242009202D80A68D20780
:101EB000F7D1002084F83400012084F83500E16C6B
:101EC00009B120468847F8BD380000202DE9F041CF
:101ED000044600F07BF9ACB10546022084F83500D9
:101EE000002084F834002168086820F001000860B0
:101EF0000868C00709D000F069F9401B052837D8E9
:101F00002168F5E70120BDE8F0810868344A271D03
:101F1000E8CF00EA020E43EA0E032B43D4E9050C96
:101F200033433B43D4E90728184340EA0C00636A73
:101F3000104340EA0802042B1ED1D4E90A53206B57
:101F40001A431043086051F8140F20F0030040EAD0
:101F5000050040F00402B3B1BCF5005F24D0BCF131
:101F6000000F31D1022D32D0012D27D07DB30AE0F0
:101F700003262027032012E00A6051F8140F20F0F6
:101F8000070040EA030220460A60FEF75DFFE16DAC
:101F90003F2202FA01F181600027012600206765D7
:101FA00084F83560BDE8F081032DECD80126402788
:101FB0000120DFE805F0020C0203F0E7A3F1C07096
:101FC000B0FA80F0400904E0032D04D3DBD1C3F361
:101FD00000600028D7D0012640270120DFE700BF9E
:101FE0003F8010F0B0B5044600F0F0F8054699487F
:101FF000611C007818BF044400F0E8F8401BA042C0
:10200000FAD3B0BD2DE9FC4F634A08249042634ADD
:1020100008BF072402444FEAB223072B4FF0010BFD
:102020004FF000094FF000034FF0000A38BF4FEAAD
:10203000B2240094202B08BFBDE8FC8F0F680BFA78
:102040000AF6374200F0A2804F6807F00308A8F1B3
:102050000104012C18D80322856802FA03F425EA4A
:10206000040CCD684FEA4A0E9D4045EA0C05856098
:10207000C7F3001505FA0AFC4568B54345EA0C05A7
:102080006FEA040C45600BE003249C406FEA040CEB
:10209000B8F1030F9E4603D19E464FF0030820E09F
:1020A000C4688D6804EA0C0405FA0EF52C43B8F1F7
:1020B000020FC46015D109F01C040F2202FA04F8C3
:1020C0006FF0030202EA5A0707443D6A25EA08084E
:1020D0000D6905FA04F444EA08043C624F6807F00D
:1020E0000308056808FA0EF405EA0C052C4317F4FA
:1020F000403F04604AD0002201922B4A2AF0030795
:10210000146844F48044146014680F2204F480447A
:10211000019409F00C0402FA04FC214A019D964640
:102120001744224A9046BD58009A25EA0C0502FA47
:1021300004F42C4347F80840DEF808404F6844EAAE
:102140000605FA02174A58BF24EA0605CEF80850D9
:1021500094461268BD0242EA060458BF22EA060409
:10216000CCF80040DEF80420BD0342EA060458BF64
:1021700022EA0604CEF80440DEF80020FD0342EA1D
:10218000060458BF22EA0604CEF8004009F104090B
:1021900002330AF1010A4DE7001C02400000FEBFB5
:1021A000003C01400C3C01404438024008FCFFFF69
:1021B000426902EA0103914341EA034181617047A8
:1021C000002A08BF090481617047000005480068C3
:1021D000704700BF1F48034900780A681044086030
:1021E000704700BFCC3E002080B50B48016841F429
:1021F00000710160016841F480610160016841F48F
:1022000080710160032000F06FF80F2000F006F8E5
:1022100000F024F8002080BD003C024070B50D4E57
:10222000044630784FF47A71B1FBF0F00A4909683E
:10223000B1FBF0F001F050FB01250F2C08D838B9A4
:102240004FF0FF3021460022002500F031F8746085
:10225000284670BD140000203800002082B0002005
:102260000B4901904A6842F480424A604A6802F48D
:1022700080420192019A0090086840F08050086006
:10228000086800F080500090009802B0704700BFCE
:1022900040380240002808D400F01F01012202FA51
:1022A00001F1024A400942F82010704700E100E0C5
:1022B000B0B5134B4FF0FF351B68C3F30223DC1E90
:1022C00083F0070338BF0024042B28BF042305FA3A
:1022D00003F3994305FA04F3A1409A431143BDE87F
:1022E000B04004F0F7BF00BF05494FF6FF030A688E
:1022F0001A4060F30A22034810430860704700BF89
:102300000CED00E00000FA05704700684162002013
:102310007047B0B50068436AB1B1846A013903EB14
:1023200014430024E5B2A94207D900EB8505D5F88E
:102330000451013403EB1543F4E700EB810043EA59
:102340000241C0F8041102E043EA02418162002028
:10235000B0BD0000D0F8080503F04CBF01EBC1028E
:10236000D0F8083500EB8200C26C184603F0ACBE12
:1023700001EBC102D0F8083500EB8200D0F88C22C6
:10238000184603F0FBBE0000D0F8080503F034BF88
:1023900001F00F0202EBC20200EB820303F13C02E8
:1023A000090658BF03F51F720068114604F0E2BD2C
:1023B00010B5044601F00F00090609D400EBC00176
:1023C00004EB8101002281F87D2201F51F7107E0F5
:1023D00000EBC00104EB8101012281F83D203C317A
:1023E000087094F8BC04012804BF022010BD01202D
:1023F00084F8BC04206804F00BFB002084F8BC04C3
:1024000010BDB0B50446626801F00F00904201D9DA
:10241000012524E0090609D400EBC00104EB810189
:10242000002281F87D2201F51F7107E000EBC00159
:1024300004EB8101012281F83D203C310025087028
:102440008D7094F8BC04012801D1022507E0012019
:1024500084F8BC04206804F0A9FC84F8BC54284625
:10246000B0BD01F00F0101EBC10100EB8100D0F81C
:102470009C027047B0B5044601F00F00090609D46C
:1024800000EBC00104EB8101002581F87D5201F5CC
:102490001F7107E000EBC00104EB8101012581F809
:1024A0003D503C31CA600B7108704A7802B1088116
:1024B000022B04BF0020487194F8BC04012804BF1B
:1024C0000220B0BD012084F8BC04206804F0F4F9B7
:1024D000002084F8BC04B0BDB0B501F00F0404EBDB
:1024E000C40100EB81050021C5F89C12C5F89432A7
:1024F000C5F88C2285F87D1285F87C42036905F5C4
:102500001F71012B08BFC5F890220068DAB214B120
:1025100004F080FC01E004F0A9FB0020B0BDB0B5E0
:102520000446406801F00F05854284BF0120B0BD1C
:10253000080609D401EBC10004EB8000002180F8FB
:102540007D1200F51F7108E005EBC50004EB80006B
:10255000012180F83D1000F13C0101200D708870D0
:1025600094F8BC24012A04BF0220B0BD84F8BC0446
:10257000206804F033FC2DB9217C206804F2C442A9
:1025800004F0E8FB002084F8BC04B0BD70B501F095
:102590000F0404EBC40100EB8105294601F83C4F10
:1025A00000260E628B6101230A614B700369012BC7
:1025B00008BF2A650068DAB214B104F02BFC01E010
:1025C00004F054FB002070BD2DE9F04F89B0056880
:1025D0000646284604F068FD10B109B0BDE8F08F4A
:1025E000306804F08DFD0028F7D0D5F80808C0F356
:1025F0000D20C6F8FC04306804F082FD0146306806
:10260000890703D5416901F00201416105F50061C7
:10261000039104F075FD01463068C90608960495DB
:102620003ED5816921F0100181612C6AC4F34340D9
:1026300004F00F0506281CD002282BD147F6F070B5
:10264000044027D005EBC50006EB8005D5F88C12B9
:102650000498220904F058FDD5F88C02D5F89C1294
:1026600000EB1410C5F88C0201EB1410C5F89C02A5
:1026700010E0049806F2C441082204F045FD05EB81
:10268000C50006EB8000D0F89C12C4F30A12114476
:10269000C0F89C123068816941F010018161049D8D
:1026A00004F02EFD000340F1D380089C206804F064
:1026B00006FD064604F5277A04F2C4404FF430685C
:1026C0004FF0000B0790002E00F0C280F00700F0E2
:1026D000B58008985FFA8BF90068494604F008FD58
:1026E0000746C00757D005EB080001218160089C10
:1026F000206808EB0001036C8A682469012C24D14E
:1027000014072DD4940644D412F0280F43D1DA4C88
:10271000A34202D312F4004228D15AF8042C0969CA
:10272000B8F5306F6FF3DF41A2EB0101CAF800107A
:102730002AD1089BD3F89422002A00F08780D3F88E
:102740008C020844C3F88C021EE0CB4CFF34A34239
:102750000FD110040AD4900644BF2020886013E0F3
:10276000C548834217D312F4004014D04FF4004000
:1027700010E0B8F5306F07D10899D1F8941219B963
:102780000021079A04F0E6FA08984946FFF7F0FDA1
:1027900001E020208860380723D505EB08000821D8
:1027A00081600898016808EB01000D6C81680904DC
:1027B000B149A1F1010404D5A54284BF4FF4004101
:1027C0008160089800F0A4FBA542049D09D90898EF
:1027D0000069012805D10898079A0068012104F0D2
:1027E000B9FAF80642BF05EB080010218160B8076E
:1027F00017D56869000605D503980146406840F47E
:10280000806048601AF81D0C012806D100200AF8E3
:102810001D0C0898494600F065FA05EB08000221F6
:102820008160B80642BF05EB080020218160B80432
:1028300042BF05EB08004FF4005181600AF1240A01
:1028400008F1200876080BF1010B3CE7012198E71D
:10285000DDF820A0DAF8000004F052FC400340F15B
:10286000CD80DAF8000004F023FC03460AF2C440ED
:10287000029005F5106005900020002B00F0BE804E
:102880000790D80700F0B680079EDAF80000F7B28C
:102890003946069304F01AFC0446C00727D0039B70
:1028A00006F00F000122596B02FA00F021EA000045
:1028B0005863059800EB46108260DAF81000012892
:1028C00011D106EBC6000AEB8000D0E912121144C8
:1028D000C16446B9DAF8540028B9DAF80000029A5F
:1028E000012104F037FA50463946FFF737FD20073B
:1028F00004D50598082100EB46108160069BE00690
:1029000004D50598102100EB46108160600604D5BF
:102910000598402100EB46108160A00717D5284696
:10292000314604F08FFB06EBC6000AEB800010F87E
:102930003F1F012905D1002101705046394600F0A2
:10294000CDF90598022100EB46108160069B200618
:1029500050D5079800EBC0000AEB800BD94659F818
:10296000540FC84658F8082F904243D35BF8481FCD
:10297000851ADAF800408D4288BF0D4607990BF1A1
:10298000040604EB411101F5106A18E0089DDBF81C
:1029900000302D7C31680095851A9D4288BF1D4608
:1029A000ABB220463A4604F083FC306828443060DD
:1029B000D8F800004219C8F80020D9F80000DAF869
:1029C0001830E91C9BB2B3EB910F28BF9042DDD8C1
:1029D000DDF820A0049D069B90420BD807980121AA
:1029E00000F00F0001FA00F0D4F8341821EA0000DA
:1029F000C4F8340807985B0801303EE7DAF80000B5
:102A000004F07EFB002802D4DAF8000019E00399F4
:102A1000486820F0010048609AF8F404012807D1C2
:102A200000208AF8F40450460021FFF76DFC02E014
:102A3000504600F051FADAF80000416901F0004117
:102A4000416104F05DFB000502D4DAF800000CE0FF
:102A500003988068C00702D0504600F07FFADAF889
:102A60000000416901F40061416104F049FBC004C8
:102A700004D4DAF8000057E00B30544FD5F80408BE
:102A8000102120F00100C5F80408DAF8000004F075
:102A9000D9FADAF80410039C05F510604FF67F327E
:102AA000A9B182600368013923F400130360C0F800
:102AB0000822D0F8003223F40013C0F80032D0F816
:102AC000003243F00063C0F800322030E8E7E069EC
:102AD00040F00110E061DAF8300040B1D4F8840031
:102AE00040F00B00C4F8840004F1440006E0606983
:102AF00042F22B010843606104F1100001680AF200
:102B0000C44241F00B010160206820F4FE602060A7
:102B1000DAF800009AF8101004F01CF9DAF8000056
:102B2000416901F48051416104F0EAFA0146DAF8A2
:102B3000000089041AD503F0FDFEDAF8000004F065
:102B4000A5FACAF80C00DAF8004000F0B5FA9AF8D5
:102B50000C200146204604F033FB504600F0A6F955
:102B6000DAF80000416901F40051416104F0C8FA4B
:102B7000000702D4DAF8000008E0504600F0B0F98F
:102B8000DAF80000416901F00801416104F0B8FA87
:102B9000000617D5049801240146806940F2A32558
:102BA00020F080008861DAF8040084420AD21AF822
:102BB0000500012803D1E1B25046FFF7E9FB2435B7
:102BC0000134F0E7DAF8000004F09AFAC00202D407
:102BD000DAF8000022E004980AF1630400F51265B7
:102BE00001260127DAF80400874211D260782968AB
:102BF000B1F1FF3F08DC012806D147F08000C1B2E7
:102C000050462670FFF7C4FB243420350137E9E72E
:102C1000DAF80000416901F480114161049C04F07C
:102C20006FFA800202D4DAF8000033E0DAF8042008
:102C30000AF5297004F5326101230124944223D25C
:102C400006780D68B5F1FF3F14DC012E12D1DAF8D9
:102C5000FC6405F4803506F00106B5420AD1049DF6
:102C60002E46AD6945F08005B56100F8013C7569F7
:102C70002D0603D5243020310134DFE703980146C7
:102C8000406840F400704860DAF80000416901F4DF
:102C90000011416104F034FA400002D4DAF8000077
:102CA00008E05046FFF756FBDAF80000416901F0F2
:102CB0008041416104F024FA40077FF58EACDAF8D8
:102CC00000004468610704D55046FFF75DFBDAF861
:102CD00000004168214341607FE40000D0F808050E
:102CE00003F0E6BAD0F8080503F0F6BA2DE9F04F84
:102CF0008BB0002800F087800446056890F8BD047A
:102D000028B9002084F8BC04204600F08BF803208A
:102D100084F8BD04E86BC0055CBF0020206120681A
:102D200003F09EFF206804F1140E0A90D4E90C50C1
:102D300004F1040B9EE8C05004F1240A9BE80E083D
:102D40009AE80007CDE9085002A8CDE900B680E86E
:102D5000805005A880E800070A9803F0FBFD0028D2
:102D60004ED120680021002504F0E9F961680120B6
:102D70000022D3B2994210D903EBC30604EB8606B6
:102D8000A6F8443086F83C2086F83D007565C6E913
:102D9000125586F840500132EBE700200022D3B2F2
:102DA00099420FD903EBC30304EB8303C3F89402E6
:102DB000C3E9A20083F8800283F87C2283F87D02B5
:102DC0000132ECE7A06804F1140E0A90D4E90C502B
:102DD000D4E9033B9EE8C05004F1240A22689AE833
:102DE0000007CDE9085002A8CDE900B680E8805080
:102DF00005A880E8000710460A9A03F06DFE38B176
:102E0000022084F8BD04012528460BB0BDE8F08FF0
:102E10000025012084F8385084F8BD04206803F0B0
:102E20004DFEF1E7B0B586B000240594CDE903442A
:102E300000680294B0F1A04F019401D006B0B0BD7B
:102E400043F630050094C4F20205286801A940F059
:102E500001002860286800F00100009000984FF4FD
:102E6000C05001900220CDE90204032004900A2002
:102E700005900020C4F20200FFF7C4F86868002142
:102E800040F08000686000946869002240F480404F
:102E90006861686900F48040009000984320FFF763
:102EA00007FA4320FFF7F6F906B0B0BD10B50446A7
:102EB000C06828B1022818BFFEF70CFA012100E013
:102EC0000021D4F8080503F07BFAD4F80805BDE822
:102ED000104003F02BBA0000D0F8080503F058BAF0
:102EE000D0F8080503F05EBA10B5044690F8BC04AB
:102EF000012804BF022010BD012084F8381084F896
:102F0000BC04206804F04BF9002084F8BC0410BD18
:102F1000D0F8082500F2C441104603F05FBA10B59E
:102F2000044690F8BC04012804BF022010BD012112
:102F3000206884F8BC14A16A012906D1A16901297D
:102F400003D0816B41F48031816304F055F820682F
:102F500003F0A6FD002084F8BC0410BD10B50446A3
:102F6000D0F8080503F07EFA2068D0F8001E41F082
:102F70000101C0F8001E206A002808BF10BD4EF6EF
:102F80001050CEF20000016841F00601016010BD52
:102F90002DE9F041002800F08680444B0446D3F828
:102FA0000004884600F00700884207D283F80084B6
:102FB000D3F8000400F00700404574D12068810771
:102FC00011D5410703D5996841F4E0519960010793
:102FD00003D5996841F460419960A1689A6822F02C
:102FE000F00211439960C0072BD06068811E02294E
:102FF00003D21968890109D455E0012803D1196861
:10300000890303D44FE0196889074CD599681D4698
:1030100021F0030108439860FFF7D8F8064641F213
:1030200088376068A9682B4601F00C01B1EB800F6E
:1030300007D0FFF7CBF8801BB842F2D90320BDE8D8
:10304000F081D3F8000400F00700404507D983F869
:103050000084D3F8000400F00700404523D1206825
:10306000410705D5E1689A6822F4E052114399605E
:10307000000706D52069996821F4604141EAC00043
:1030800098601C4600F036F8A168094AC1F30311A4
:10309000515CC8401449086006480068FFF7BEF854
:1030A0000020BDE8F0810120BDE8F0810038024039
:1030B0003E800008180000200B480068704700BFE1
:1030C00009480A4900680968094AC1F38221515C2C
:1030D000C84070470448054900680968044AC1F3BC
:1030E0004231515CC8407047380000200838024027
:1030F0004E80000810B5134C606800F00C011248B7
:10310000082903D004291CD1104810BD2168236868
:1031100001F03F0221685B02C1F3881105D4A1FBD5
:1031200000010023FDF74CF803E008484843B0FBDA
:10313000F2F021680222C1F3014102EB4101B0FB30
:10314000F1F010BD043802400024F40000127A00AF
:103150002DE9FC41002800F0D08004460078C24EE2
:10316000C00744D0B06800F00C00042805D13068D6
:1031700080033CD56068D0BBBFE0B06800F00C00B5
:10318000082802D170684002F1D46768B7F5803F23
:1031900006D03068B7F5A02F12D140F480203060FF
:1031A000306840F480303060FFF710F80546306832
:1031B00080031CD4FFF70AF8401B6428F7D9DFE02E
:1031C00020F480303060306820F480203060FEF7DA
:1031D000FDFF0546002FEAD106E0FEF7F7FF411B91
:1031E0000320642900F23E8130688003F5D4207802
:1031F00080072CD5B06810F00C0F07D0B06800F035
:103200000C00082809D17068400206D43068800795
:1032100016D5E068012813D06FE0E068002800F0C0
:10322000D080924801210160FEF7D0FF054630684A
:10323000800705D4FEF7CAFF401B0228F7D99FE09C
:103240002069316821F0F80141EAC000306020783F
:10325000000720D56169854871B10121C0F8801E41
:10326000FEF7B4FF0546706F800714D4FEF7AEFF7B
:10327000401B0228F7D983E00021C0F8801EFEF72A
:10328000A5FF0546706F800705D5FEF79FFF401B21
:103290000228F7D974E02078400731D4A769002FBD
:1032A00000F0DF80B06800F00C0008286BD1012F1F
:1032B00023D0E169706800F480028A421DD1216A3E
:1032C00000F03F028A4218D147F6C071626A01409D
:1032D000B1EB821F11D1A16A4FF6FF72C90391436E
:1032E000A1F5803100F440328A4206D1E16A00F053
:1032F0007060B0EB016F00F0B4800120BDE8FC818C
:10330000306C4FF00008C0000CD4CDF80480306C55
:103310004FF0010840F080503064306C00F0805075
:1033200001900198524F3868C0050FD4386840F4B6
:1033300080703860FEF74AFF05463868C00505D43E
:10334000FEF744FF401B0228F7D919E0A768012FB8
:1033500005D0306F052F45D140F004003067306F45
:1033600040F001003067FEF731FF054641F2883733
:10337000306F80074ED4FEF729FF401BB842F7D9C3
:103380000320BDE8FC813949002088460866FEF725
:103390001DFF0546022F0AD147463068800142D5FD
:1033A000FEF714FF411B03200229F6D95AE03068CA
:1033B000800156D5FEF70AFF411B03200229F6D9EA
:1033C00050E02A4800210160FEF700FF0546306802
:1033D00080077FF53CAFFEF7F9FE411B0320022971
:1033E000F5D93FE020F001003067306F20F0040095
:1033F0003067FEF7EBFE0546002FB7D141F2883764
:10340000306F800706D5FEF7E1FE411B0320B9426D
:10341000F6D927E0B8F1000F3FF440AF306C20F050
:10342000805030643AE71C341FCC084340EA8210D5
:10343000D9034FF6FF72914340EA0460A1F5803151
:103440000843706001203866FEF7C0FE044630680D
:10345000800106D4FEF7BAFE011B03200229F6D92B
:1034600000E00020BDE8FC81003802400000474237
:1034700000700040F8B550B1D0F824C00446BCF14B
:10348000000F06D00021216104F1140107E001259D
:103490004EE06168B1F5827F03D004F11C01002287
:1034A0000A600025A56294F8511000294FF0000130
:1034B00008D1204684F8505000F03CF8D4E909C106
:1034C00001F40051022284F8512094E8CC001068E5
:1034D00020F04000106003F4827006F404431844A6
:1034E00007F400631844236903F002031844636976
:1034F00003F001031844A36903F400763044E6693D
:1035000006F038063044266A06F080063043084349
:103510001060042000EA13400CF0100108445060D1
:10352000D06920F40060D0610120656584F8510005
:103530002846F8BD10B586B0044601A81421FCF752
:1035400077FE21681448814223D10021134A00915B
:10355000536900F5544043F480535361536903F4B5
:1035600080530093009B0091136843F002031360A3
:10357000126802F002020092052205920322CDE9B0
:1035800003120221029138210191009901A9FEF74D
:1035900039FD06B010BD00BF003001403038024098
:1035A0002DE9F843044690F85000012804BF02209A
:1035B000BDE8F8834FF001091D4616460F4684F812
:1035C0005090FEF703FE804694F85100012855D133
:1035D0000120002F00F08F80002E00F08C8003204F
:1035E00084F8510000206065E686A6862763A087E0
:1035F000A063C4E91000E087A1682068B1F5004F1E
:1036000007D1016821F040010160016841F4804167
:1036100001600168490603D4016841F0400101607E
:103620006168731EE268B1FA81F1B3FA83F3490964
:103630005B091943B2F5006F22D131B137F8021B93
:10364000C1602763E08E0138E0866E1CE08ED0B347
:1036500020688168890708D4FEF7B8FD002EF5D0F0
:10366000A0EB0800A842F1D344E0216B31F8022B13
:10367000C2602163E08E0138E086E7E702203AE08D
:1036800039B139780173206B01302063E08E013845
:10369000E0866E1CE08EB0B120688168890708D48E
:1036A000FEF794FD002EF5D0A0EB0800A842F1D360
:1036B00020E0216B09780173206B01302063E08EDC
:1036C0000138E086E6E720462946424601F01CFB29
:1036D00008B120206065A06838B9002000902068FB
:1036E000C1680091806800900098606D002818BF44
:1036F000012000E00320002184F8501084F851904C
:10370000BDE8F8832DE9F843044690F850000128FD
:1037100004BF0220BDE8F88301201E4615460F466F
:1037200084F85000FEF752FD94F8511081460129AB
:1037300069D10120002F00F0AF80002D00F0AC8097
:10374000002E00F0A98094F8510004281CBF052029
:1037500084F8510000206065E687E686A563A687A9
:103760002763C4E91000A68620680168490603D4CF
:10377000016841F0400101606168731EE268B1FABE
:1037800081F1B3FA83F3DDF8208049095B0919431D
:10379000B2F5006F45D131B137F8021BC160276324
:1037A000E08E0138E086012608F10105E08E10B9AF
:1037B000E08F002878D02068816889070CD5E18ED9
:1037C000012E09D141B1216B002631F8022BC260D4
:1037D0002163E18E0139E1868168C9070AD0E18F52
:1037E00041B1A16BC068012621F8020BA163E08FF3
:1037F0000138E087FEF7EAFC002DD7D0A0EB0900E6
:103800004045D3D347E06068B0F5827F07D10220FE
:10381000042941D1A16800293FF48BAF3CE002208C
:103820003AE039B139780173206B01302063E08EC2
:103830000138E086012608F10105E08E08B9E08F25
:1038400090B32068816889070ED5E18E012E0BD1D7
:1038500051B1216B002609780173216B2068013179
:103860002163E18E0139E1868168C9070BD0E18FC0
:1038700049B1A16BC06801260870A06B0130A0633C
:10388000E08F0138E087FEF7A1FC002DD5D0A0EB3A
:1038900009004045D1D30320002184F850100121B4
:1038A00084F85110BDE8F883204641464A4601F0AD
:1038B0002BFA18B1202060650120EDE7A1680020F7
:1038C0000029E9D100902168CA68009289680091B6
:1038D0000099E1E770470000411E0020B0EB116F36
:1038E0001CBF01207047044AF023516003490B704C
:1038F000072190601160704710E000E023ED00E0C8
:10390000FFF7E8BF70477047F0B5024690F83C00FB
:10391000012804BF0220F0BD002082F83C0001F124
:103920000807E0CFD1E900C426F47C5625F4705591
:10393000354324F4F0442C432CF4E0454B692C43EC
:1039400027F4C0452C432343C96923F480431268FC
:1039500019435164F0BD000010B590F83C300222CC
:10396000012B30D080F83D20012280F83C200268F5
:103970000B685468B2F1804F24F0700444EA0304E9
:103980009368546014D08B4CA24211D08A4CA2424E
:103990000ED08A4CA2420BD0894CA24208D0894C4E
:1039A000A24205D0884CA24202D0884CA24204D147
:1039B000496823F08003194391600022012180F8B7
:1039C0003C2080F83D10104610BD00BF10B50446E5
:1039D00041B1082909D0042914BF04F1450004F1BC
:1039E000430004E004F1420001E004F144000078E7
:1039F00001281CBF012010BD022041B1082909D0B7
:103A0000042914BF84F8450084F8430004E084F8D6
:103A1000420001E084F844002068042201F08DFC9B
:103A20002068416CB0F1804F41F40041416414D0F2
:103A30006049884211D0604988420ED05F4988426F
:103A40000BD05F49884208D05E49884205D05E4964
:103A5000884202D05D49884204D1816801F00701A3
:103A6000062903D0016841F001010160002010BD6A
:103A700040B310B5044690F83D0028B9002084F802
:103A80003C00204600F020F8022084F83D00206829
:103A9000211D01F0DBFB012084F8460084F83E0084
:103AA00084F83F0084F8400084F8410084F8420024
:103AB00084F8430084F8440084F8450084F83D000D
:103AC000002010BD01207047F8B50068B0F1804FAC
:103AD00012D03A49884222D0F74988420BD10020BF
:103AE00003901A48416841F001014160406800F0CC
:103AF0000100039003988FBD00200290134800221C
:103B0000016841F0010101600068002100F001003E
:103B1000029002981C20FEF7CBFB1C2011E0002035
:103B200001900A480022016841F008010160006824
:103B3000002100F00800019001983220FEF7B8FB48
:103B4000322004B0BDE88040FEF7A4BB40380240FC
:103B500090F83D1001291CBF01207047022180F818
:103B60003D100068C168B0F1804F41F00101C160B3
:103B700014D01049884211D00F4988420ED00F4905
:103B800088420BD00E49884208D0CB49884205D0E4
:103B90000D49884202D00D49884204D1816801F064
:103BA0000701062903D0016841F0010101600020EE
:103BB000704700BF0004004000080040000C0040B7
:103BC0000018004000000140004001400004014096
:103BD00010B590F83C2004460220012A70D084F8E9
:103BE0003D00012084F83C0020684FF6777382681E
:103BF0009A4382600A6812B3102A20D0202A1ED06D
:103C0000302A1CD0402A21D0502A2BD0602A35D00F
:103C1000B2F5005F3ED0B2F5805F4AD0702A50D135
:103C2000D1E90123C9681A4342EA0121826822F4DA
:103C30007F4211438160816841F0770138E08168FB
:103C400021F07001114341F0070131E04B68CA686F
:103C5000194601F031FC2068816841F0470121F0EC
:103C6000300125E04B68CA68194601F025FC206840
:103C7000816841F0570121F0200119E04B68CA68C2
:103C8000194601F02AFC2068816841F0670121F0A3
:103C900010010DE0D1E90123C9681A4342EA01216C
:103CA000826822F47F4211438160816841F480413F
:103CB00081600020002184F83C10012184F83D102F
:103CC00010BD0120F6E7704710B504460068016991
:103CD000890744BFC1685FEA817139D40169490726
:103CE00044BFC1685FEA41713ED40169090744BF1E
:103CF000C1685FEA017144D40169C90644BFC16863
:103D00005FEAC16149D40169C9071CBFC1685FEAA4
:103D1000C1714FD10169090644BFC1685FEA016101
:103D200050D40169490644BFC1685FEA416151D47A
:103D30000169890644BFC1685FEA816100D410BD92
:103D40006FF0200101612046BDE81040FFF7DBBDA8
:103D50006FF002010161012121778069800741D064
:103D60002046FFF7B0FF43E06FF00401016102213C
:103D70002177806910F4407F3ED02046FFF7A3FFF3
:103D800040E06FF00801016104212177C0698007DC
:103D90003CD02046FFF797FF3EE06FF01001016135
:103DA00008212177C06910F4407F39D02046FFF701
:103DB0008AFF3BE06FF001010161204600F06EF9DF
:103DC0002068A7E76FF0800101612046FFF79AFDA8
:103DD0002068A6E76FF040010161204600F094F9E9
:103DE0002068A5E7204600F06BF8204600F0E3F8D5
:103DF00000202077206871E7204600F061F8204617
:103E000000F0D9F80020207720686EE7204600F007
:103E100057F8204600F0CFF80020207720686BE7A5
:103E2000204600F04DF8204600F0C5F8002020772D
:103E3000206868E72DE9F04186B0044601A8142106
:103E4000FCF7F6F92068924DA84232D100261B48B3
:103E5000009601684FF0010841F00201016001681D
:103E6000022701F00201009100990096016801AC5F
:103E700041F0010101600068214600F0010000905E
:103E80004FF46040CDF81480CDE9036602970190AD
:103E9000009805F58230FEF7B5F84FF4E060CDE903
:103EA0000468CDE90276019005F580302146FEF7E1
:103EB000A9F806B0BDE8F0810000014030380240AA
:103EC00070470000B0B5044690F83C00012804BFDC
:103ED0000220B0BD0D464FEAB2010120032984F84B
:103EE0003C0037D8DFE801F0020A12222068294698
:103EF00001F032FA206850F8181F0EE020682946B9
:103F000001F054FA206850F8181F16E0206829467E
:103F100001F07CFA206850F81C1F41F00801016094
:103F2000016821F00401016029690FE02068294639
:103F300001F09EFA206850F81C1F41F400610160F6
:103F4000016821F480610160296909020268114356
:103F500001600020002184F83C10B0BD40B310B5D2
:103F6000044690F83D0028B9002084F83C00204623
:103F700000F020F8022084F83D002068211D01F0A7
:103F800065F9012084F8460084F83E0084F83F007B
:103F900084F8400084F8410084F8420084F843002B
:103FA00084F8440084F8450084F83D00002010BDEA
:103FB000012070477047704770B5044641B1082929
:103FC00009D0042914BF04F1410004F13F0004E0CA
:103FD00004F13E0001E004F14000007801281CBF1C
:103FE000012070BD022041B1082909D0042914BF65
:103FF00084F8410084F83F0004E084F83E0001E0CA
:1040000084F840002068012201F088F92068B0F1AE
:10401000804F1FD01B4988421CD01B4A904219D0A8
:10402000344B984216D0194CA04213D0184DA842D8
:1040300005D0184EB0420DD0174EB0420FD1466C8D
:10404000B0F1804F46F40046466403D0884218BF62
:1040500090420AD1816801F00701062903D0016866
:1040600041F001010160002070BD9842F2D0A042F1
:10407000F0D0A842EED007498842EBD006498842EA
:10408000E8D0ECE7000400400008004000180040C1
:10409000000001400040014000040140B0B500684C
:1040A0001449884200D0B0BD13480078022816D0C9
:1040B0000328F8D1134D1149286A114C0968C4E945
:1040C000100104F1300000F09AFD686A206194ED5F
:1040D000160A2046B1EE400A84ED050A06E00748BC
:1040E000084A41680648526AC0E90421BDE8B04068
:1040F00000F0FEBC000C004038170020C03E00203D
:10410000D4010020980200207047704770470000DB
:10411000F8B5044600680168C268466901F02F05D9
:1041200002F02003202D05D123B12046BDE8F84040
:1041300001F011BA5FEA017E08D006F0010686F0B0
:10414000010712F4907F53D1002F51D01140CA06BD
:10415000226B3BD5012A39D10021009101680091E1
:104160004168009100994169490600F19080E18D14
:10417000A28DE38D002B00F00481511A0A0401D1B5
:10418000FFE0206850E8030F226820F4907042E8B6
:104190000303002BF5D1206850E8050F226820F0BA
:1041A000010042E80503002BF5D1202084F83E00F1
:1041B00000202063206850E8030F226820F01000E0
:1041C00042E80303002BF5D189B2A2E00A0600F110
:1041D000A580490640F1D580C16821F04001C16049
:1041E000202084F83D002046BDE8F84000F09FB94B
:1041F000CD0718BF12F4807503D0256C45F001057A
:10420000256401F004054FF0010C8CEA95053D434F
:1042100003D1256C45F00205256401F002058CEA06
:1042200055053D4303D1256C45F004052564334312
:1042300018BF0123BEF1000F04D51BB1236C43F05E
:1042400008032364236C002B00F09B801140890637
:1042500003D5204601F07FF920684069216C00F009
:10426000400001F00801401868D0204601F04CF9E8
:1042700020684169490673D550E8050F216820F090
:10428000400041E80502002A5ED02068F4E7A26BF6
:1042900011684B689DB2002D73D0A18D8D4270D2F4
:1042A000E385D269B2F5807F30D050E8030F2168F2
:1042B00020F4807041E803020AB12068F5E7206825
:1042C00050E8050F216820F0010041E80502002AAE
:1042D000F5D1206850E8050F216820F0400041E842
:1042E0000502002AF5D1202084F83E00002020633A
:1042F000206850E8030F216820F0100041E8030215
:10430000002AF5D1A06BFDF7D7FCA18DE08D081A2E
:1043100081B22046BDE8F840FFF7F7BE94F83D10A3
:1043200021292ED1A168B1F5805F01D12169E1B1C8
:10433000216A4A1C2262097841601DE02046FFF78D
:10434000E5FE00202064F8BDA06B48B1124901656C
:10435000FDF7F2FCA8B1A06B016DBDE8F84008477D
:104360002046BDE8F840FFF7D1BE216A31F8022BA4
:104370006FF35F2221624260E18C0139E18409041C
:1043800000D0F8BDC16821F08001C160C16841F072
:104390004001C160F8BD00BFFD54000850B310B526
:1043A000044690F83D0028B9002084F83C002046DF
:1043B00000F022F8242084F83D002068C16821F430
:1043C0000051C160204601F027F92068016921F4FD
:1043D00090410161416921F02A014161C16841F4C4
:1043E0000051C16000202021206484F83D1084F831
:1043F0003E1010BD0120704710B586B0044601A8DC
:104400001421FBF715FF2168184881422BD10021A8
:10441000F84A0091536900F5744043F0100353616A
:10442000536903F010030093009B0091136843F05D
:1044300002031360126802F0020200920722059242
:104440000322CDE9031202210291C02101910099BA
:1044500001A9FDF7D7FD252000210022FDF728FF47
:104460002520FDF717FF06B010BD00BF001001406A
:1044700070472DE9F047044690F83D0020280AD106
:104480000D460120002950D01646002A4DD094F840
:104490003C00012802D10220BDE8F0874FF0000A5D
:1044A0000120C4F840A084F83C002120994684F8FB
:1044B0003D00FDF78BFEE684A6848046A068B0F53B
:1044C000805F06D127690026002F0CBF2E462F469D
:1044D00001E02F46002684F83CA0E08CB8B12046CD
:1044E000802142464B4601F0FBF8B8B927B117F8D6
:1044F000010B2168486006E036F8021B20686FF364
:104500005F2141600027E08C0138E084E5E7204628
:10451000402142464B4601F0E3F810B10320BDE8CC
:10452000F087202084F83D000020BDE8F087704728
:10453000FEE7000010B5002A08BF10BD02394FF099
:10454000370C4FF0000E00BF0CEB1074B0F1204F91
:104550004FEA107338BF03F1300401F8024F000135
:10456000013A81F801E0EFD110BD00000A480021B6
:104570000E2241620270094A41638261084A094B76
:10458000C162C0E91532084A42600848084AC0E9D9
:1045900008218162704700BFDC3D0020DD245640C9
:1045A0009A9981413108AC3D0000C041840100204E
:1045B000CDCCCC3DB0B58CB0002568462021CDE9EE
:1045C0000A55CDE90855FBF733FE2948294A2A4BFD
:1045D00001244FF48031C56280F820500476836254
:1045E00080F83050C461C0E90021C0E90255C0E93B
:1045F0000444FDF79DF908B1FCF76CFE0220CDE9FB
:1046000009400B2008901A4808A9FDF783F808B163
:10461000FCF760FE03200490012006210190009128
:104620004FF480110791029000200690ADF814001D
:1046300003900F486946FCF7B3FE08B1FCF74AFE49
:10464000022001900720009009486946FCF7A8FE67
:1046500008B1FCF73FFE032001900E2000900448B3
:104660006946FCF79DFE08B1FCF734FE0CB0B0BD06
:1046700018360020002001400100000F10B5094C41
:1046800009491020C4E9001004F108001621FBF7C5
:10469000CFFD2046FDF762FA18B1BDE81040FCF7E7
:1046A00019BE10BD6036002000640040E0B5002057
:1046B000019050480022016841F4800101600068C7
:1046C000002100F48000019001983820FDF7F0FDF2
:1046D0003820BDE88C40FDF7DDBD00BF2DE9F04F6F
:1046E00087B000264348069601960168424F41F084
:1046F00004010160016807F5006501F00401019102
:104700000199019601683D4C41F08001016001680A
:10471000002201F08001019101990196016841F0A8
:1047200001010160016801F0010101910199019607
:10473000016841F002010160016801F0020101918C
:1047400001990196016841F00801016000684FF489
:104750007F5100F00800019001982846A04707F516
:10476000806840464FF480510022A04738464FF4FD
:1047700000410022A04707F5406738460421012286
:104780004FF0010BA0474FF4705002ACDFF870906F
:104790000596CDE903B6029028462146C8474FF05A
:1047A000030A4FF48050CDF814A0CDE903B602906F
:1047B00040462146C8474FF47070CDF814A0CDE9AB
:1047C00003B6029028462146C8474FF4004005969C
:1047D000CDE903B6029008482146C8470420059653
:1047E000CDE903B6029038462146C84707B0BDE878
:1047F000F08F00BF3038024000000240C1210008A5
:1048000005200008F8B510480A2100220F4FC0E922
:104810000822C0E90A2120214FF4007301244FF43B
:1048200000654FF48276C0E90076C0E90225C0E950
:104830000424C0E90631FEF71DFE18B1BDE8F840BA
:10484000FCF748BDF8BD00BFF43B0020003001403C
:10485000F0B597B009AC002520461C21CDE91555CF
:10486000CDE91355CDE91055FBF7E2FC01A8202155
:104870002026FBF7DDFC3B483B4F01214FF48072C3
:1048800041F26803C0E90075C0E90263C0E9042190
:104890008561FFF7EDF808B1FCF71CFD4FF480507F
:1048A0001390304813A9FFF793F908B1FCF712FDF4
:1048B0002C48FFF753FB08B1FCF70CFD00201190CA
:1048C00070201090274810A9FFF746F808B1FCF7B0
:1048D00001FD60200990201D1821FBF7A9FC21484B
:1048E00021460022FFF7EEFA08B1FCF7F3FC1D4861
:1048F00009A90422FFF7E6FA08B1FCF7EBFC194816
:1049000009A90822FFF7DEFA08B1FCF7E3FC41F23F
:1049100067000A9070200990124809A90C22FFF73D
:10492000D1FA08B1FCF7D6FC00204FF400510890F2
:10493000CDE90501102004904FF4807003904FF4EE
:10494000806002904FF400600190064801A9FEF7D4
:10495000DBFF08B1FCF7BEFC0248FFF76BFA17B0AB
:10496000F0BD00BF4C3C00200000014010B586B0F7
:10497000164800214FF0FF3253234FF080448161ED
:10498000C0E90043C0E902120161CDE90411CDE99B
:104990000211CDE90011FFF76BF808B1FCF79AFCA2
:1049A0004FF480500290094802A9FFF711F908B1AD
:1049B000FCF790FC0020CDE9000004486946FEF7B2
:1049C000CBFF08B1FCF786FC06B010BD943C00207C
:1049D00010B586B01548164C0021FA225323816188
:1049E000C0E90043C0E902120161CDE90411CDE93B
:1049F0000211CDE90011FFF73BF808B1FCF76AFCA2
:104A00004FF480500290094802A9FFF7E1F808B17D
:104A1000FCF760FC0020CDE9000004486946FEF781
:104A20009BFF08B1FCF756FC06B010BDDC3C002033
:104A3000000C004010B50B480B4C00210C224FF429
:104A4000E133C0E90043C0E90211C0E90412C0E942
:104A50000611FFF7A3FC18B1BDE81040FCF73ABC03
:104A600010BD00BF243D00200010014080B543F27E
:104A70003C3040F21C01C2F20000C2F200010022F0
:104A800001F0F8FA002818BFFCF724FC43F23C3090
:104A900040F23C01C2F20000C2F2000101F00AFD46
:104AA000002818BFFCF716FC43F23C3040F2D80156
:104AB000C2F20000C2F2000101F004F8002818BFA1
:104AC000FCF708FC43F23C30C2F2000001F0ACFD00
:104AD000002808BF80BDBDE88040FCF7FBBBFEE7B7
:104AE000FEE700000148FDF76FBD00BFE83600207B
:104AF00090ED041A90ED053A90ED012A90ED030A2D
:104B000033EE411A01EE020A80ED061A80ED030A27
:104B100090ED092AB4EEC20AF1EE10FA06DCB1EE0D
:104B2000422AB4EEC20AF1EE10FA03DAB0EE420AFB
:104B300080ED032A90ED003A90ED0B2A01EE030A76
:104B4000B4EEC20AF1EE10FAC4BF80ED0A2A704733
:104B5000B1EE421AB4EEC10AF1EE10FAB4BF80ED24
:104B60000A1A80ED0A0A7047B0B51B4A1B491C4B54
:104B70004FF07C54D162C2E900431A4B0020906090
:104B8000D3654FF00043C2E90D33174B1A4C136342
:104B9000C2E90500C2E9070051621449C2E91100E7
:104BA000C2E9130051651249124B4FF083424FF096
:104BB0008145C1E90043C1E90500C1E907004D6233
:104BC000C1E90B24C1E90D30CA65C1E91100C1E991
:104BD00013004D65B0BD00BFD40100200000A0410E
:104BE0000AD7A33B0000F041000096C2000020411C
:104BF000340200208FC2F53CCDCCCC3D704790ED07
:104C0000041A90ED052A90ED000A90ED0B3A32EE71
:104C1000411A21EE000AB4EEC30A80ED061A80EDB7
:104C2000071AF1EE10FAB1EE431A80ED0A0AC8BF76
:104C3000B0EE430A05DCB4EEC10AF1EE10FA00DB77
:104C40007047B4EEC10AF1EE10FAB8BFB0EE410AF7
:104C500080ED0A0A704790ED101A90ED112A20EEAF
:104C6000023A20EE010A00EE813A00EEC20A81ED1E
:104C7000000A81ED013A70472DE9FC411F4C4FF6C7
:104C8000FF701F4FADF80600204604210022B847F0
:104C9000204604210022B8471A4D0DF10606284689
:104CA0003146012264234FF06408FEF779FC204668
:104CB00004210122B847204604210122B84720469A
:104CC00004210022B847204604210022B84701AA47
:104CD000284631460123CDF80080FEF713FD20461B
:104CE00004210122B847204604210122B847BDF81B
:104CF00004006FF39F30BDE8FC8100BF000C024050
:104D0000C1210008F43B00201CB504463F4813466F
:104D10000A4600681049B0FBF1F04FF47A7148433D
:104D200001906068B0F5827F0AD12046802100F0B2
:104D300015F870B1606D40F02000606503201CBD67
:104D4000019830B101980138019020688068000610
:104D5000F6D400201CBD00BF00366E012DE9FC41D9
:104D60001E4617460D468046FDF730FA301AC41924
:104D7000FDF72CFA0646254801370068C0F3CB3012
:104D800060430190D8F8000081682940A9420FD102
:104D9000002FF9D0FDF71AFA801BA0420BD2019820
:104DA00001990028A1F10101019108BF0446E9E73A
:104DB0000020BDE8FC81D8E900014268B1F5827F9E
:104DC00022F0E00242600BD1D8F80810B1F5004F94
:104DD00002D0B1F5806F03D1016821F0400101607C
:104DE000D8F82810B1F5005F07D1016821F400510F
:104DF0000160016841F400510160002088F8500012
:104E0000012088F851000320BDE8FC813800002013
:104E1000704700009FED985A9FED964AB0EE606A89
:104E2000B0EE603AB6EE002A022110EE056A10EEEE
:104E3000043AF5EEC00A002226EE026A23EE023A98
:104E4000F1EE10FAC8BF0321C8BF0122B5EEC06A57
:104E5000F1EE10FAC8BF0A46B5EEC03AF1EE10FA0C
:104E6000C8BF0432511E042980F8482015D8DFE855
:104E700001F003293A4F640081EE811AB7EE083A37
:104E800020EE030A9FED7E3A20EE834A34EE403A4C
:104E900030EE040A23EE013A4AE081EE811A9FEDDA
:104EA000783A20EE834AB7EE083A20EE030A30EE55
:104EB000043A30EE440A23EE413A21EE001A80ED26
:104EC000033A4EE09FED6E3AB7EE085A20EE833A71
:104ED00000EE053A81EE810A23EE003A20EE840AC4
:104EE00080ED033A0FE09FED653AB7EE084A20EEF9
:104EF000833A00EE043A81EE810A20EE033A80ED17
:104F0000033A20EE850A20EE210A80EE011A28E0FD
:104F100020EE843A23EE213A83EE013A81EE811AA3
:104F2000BFEE084A20EE040A9FED554A00EE840ABF
:104F300080ED033A20EE011A13E09FED504A20EE77
:104F4000853A23EE213A20EE844ABFEE085A83EEDA
:104F5000013A00EE054A81EE810A80ED033A20EE27
:104F6000041A33EE010AB4EEE10A80ED041AF1EE00
:104F700010FA0BDD83EE003A31EE030A81EE001ADF
:104F800080ED033A33EE010A80ED041A05291DD89D
:104F900031EEC00AB5EE004A20EE040AB0EE404AF7
:104FA00003EE024AB0EE443A01EE023ADFE801F0C5
:104FB0000315202B384380ED000A80ED014A80ED77
:104FC000023AB0EE431AB0EE442A40E090ED000AF7
:104FD00090ED012A90ED021A39E080ED003A80ED63
:104FE000010A80ED024AB0EE441AB0EE402A2CE0ED
:104FF00080ED004A80ED010A80ED023AB0EE431ADE
:10500000B0EE402A09E080ED004A80ED013A80EDE3
:10501000020AB0EE401AB0EE432AB0EE440A16E09F
:1050200080ED000A80ED013A80ED024AB0EE441AAC
:10503000B0EE432A0BE0B0EE401AB0EE442A80ED09
:10504000003A80ED014A80ED020AB0EE430A0D48B5
:105050000068BDEEC00A10EE101A4163BDEEC20A30
:1050600010EE101A8163BDEEC10A10EE101AC16372
:10507000704700BFD7B3DDBFD7B3DD3FD7B35DBF48
:10508000D7B35D3F4C3C002000887047F0B50D4819
:105090000D4A00F10807D0E900CEF8CFC169C2F887
:1050A0005CE0C2E900345562C2E90B6C074AD0E902
:1050B0000830C2E900715362D0655365C2E90B073D
:1050C0005163F0BD383E0020D4010020340200209E
:1050D0002DE9F0411548164B164FD0F800E0D0F8F6
:1050E0002CC01F4AD3E900455E6ADB6AD7E900019C
:1050F000C2E90FEC02F1440CACE87000C2E91430D4
:105100001848D7F82480FF6A91654168C2E917877B
:105110005166D0E915130078C2E91B1300EE100A9E
:10512000B8EE400A82ED1A0ABDE8F08104020020C0
:10513000D401002034020020F0B50848094B0A4E83
:10514000D0E90801064AD3E902451B69D6E9007691
:1051500082E83300C2E904379661F0BD980200206E
:1051600010010020DC3D00209C01002080B5FDF7EF
:1051700031F8BDE88040FEF7C3BB0000B0B592B087
:10518000002401A81421CDE90A44CDE90844FBF725
:105190004FF8224800940168022541F080510160D7
:1051A000006800F08050009000981D48009401684D
:1051B00041F480410160006800F4804000900720C5
:1051C0001190A82010950F9004200E904FF48000AD
:1051D000CDE90C504FF480300790012006900098E4
:1051E00006A8FDF7B5FF18B1EFF3108072B6FEE721
:1051F0004FF4805005904FF4A05004900F20CDE95B
:105200000254019001A80521FDF7C2FE18B1EFF389
:10521000108072B6FEE712B0B0BD00BF4038024049
:10522000007000400248016841F47001016070475D
:1052300088ED00E00148FEF747BD00BF943C002028
:105240000148FEF741BD00BFDC3C0020B0B502685C
:10525000B0F1804F0ED0274B98420BD0264B98428E
:1052600008D0264B984205D0924B984202D0244B4E
:10527000984203D14B6822F070021A43B0F1804F7C
:1052800020D01C4B98421DD01B4B98421AD01B4B70
:10529000984217D01B4B984214D01B4B984211D008
:1052A0001A4B98420ED0164B98420BD0814B984225
:1052B00008D0174B984205D0164B984202D0164B97
:1052C000984203D1CB6822F440721A434D690B68AF
:1052D0008C6822F080022A430260C4628362754BAC
:1052E00040F480629A4204BF09690163012141616F
:1052F000B0BD00BF0004004000080040000C0040AA
:105300000000014000180040001C00400020004048
:1053100000400140004801400044014010B501F048
:105320001F010123046A8B4024EA0303036202FA8B
:1053300001F1026A1143016210BD10B501F01F01B5
:105340000423046A8B4024EA0303036202FA01F196
:10535000026A1143016210BDF0B5026A554E22F097
:10536000010202620B688A68046A24F00204224384
:105370004468856925F073052B4340F48065B54288
:1053800005D1CF6822F00C0227F004073A43B5425A
:1053900005D1D1E9055624F440742C4334434460CC
:1053A0008361496841630262F0BD00BFF0B5026AE3
:1053B000404E22F0100202620B688A68046A24F0F0
:1053C000200444EA02124468856925F4E64545EA6A
:1053D000032C40F48065B54207D1CF686FF04003DD
:1053E00003EA071322F0C0021A43B54207D1D1E9FC
:1053F000053524F4406444EA830343EA85044460A9
:10540000C0F818C0496881630262F0BDF0B5026A55
:10541000284E22F4807202620B688A68046A24F4BF
:10542000007444EA02224468C56925F0730545EA20
:10543000030C40F48065B54208D1CF6840F2FF43C9
:105440003F0227EA030322F440621A43B54207D120
:10545000D1E9053524F4405444EA031343EA051422
:105460004460C0F81CC04968C1630262F0BD00BF5F
:1054700070B5026A0F4E22F4805202620C688A688C
:10548000036A23F4005343EA02324368C56925F4F2
:10549000E64545EA042440F48065B54204D14D69EF
:1054A00023F4804343EA85134360C461496801647F
:1054B000026270BD0004014010B5036A046A24F062
:1054C00001040462846924F0F00444EA0212826157
:1054D00023F00A021143016210BD036A23F0100396
:1054E0000362836923F4704343EA0232036A8261F0
:1054F00023F0A00242EA011101627047806B002193
:10550000C185C184FEF702BE016851E8031F02682D
:1055100021F4907142E80313002BF5D1016851E8A2
:10552000051F026821F0010142E80513002BF5D1A7
:10553000016B012909D1016851E8031F026821F0BC
:10554000100142E80313002BF5D1202180F83E1012
:1055500000210163704781B090F83E10222920D1CC
:105560008368B3F5805F08D10169002948D000F154
:1055700028010A6803685B680AE0014651F8282F91
:1055800013B90369002BF5D003685B6803F07F0350
:1055900013700A6801320A60C18D0139C18509049E
:1055A00001D001B070470168CA6822F02002CA60C9
:1055B000CA6822F48072CA604A6922F001024A6114
:1055C000202280F83E20026B012A22D100220263B1
:1055D00051E8031F026821F0100142E8031301683B
:1055E000002BF5D10A68D20606D5002200920A687F
:1055F0000092496800910099818D01B0FEF785BD48
:105600000168826A49686FF35F2122F8021B826297
:10561000C2E701B0FEF72CBFB0B50446006804F144
:1056200008030ECB0569194325F440552A4302614E
:10563000C268636949F20C651943E369AA431943D7
:105640001143C1604169A26921F440711143416174
:10565000224940F48060884202D1FDF73BFD01E021
:10566000FDF72EFDE26919216368A0FB0101B2F587
:10567000004F18D15A00DB0FFAF7A2FD6421B0FBEE
:10568000F1F26FF0630302FB0300322303EBC0006F
:10569000B0FBF1F14FF4F87000EA410000EB0210AA
:1056A00001F0070115E09A009B0FFAF789FD6421CC
:1056B000B0FBF1F26FF0630302FB0300322303EB54
:1056C0000010B0FBF1F101F0F00000EB021001F06E
:1056D0000F01084321688860B0BD00BF001401407D
:1056E0002DE9F0411D4690460F4604465E1C206899
:1056F00000683840B84227D0002EF8D02DB1FCF712
:1057000065FDA0EB0800A842F1D9206850E8030F1E
:10571000216820F4D07041E80302002AF5D1206806
:1057200050E8050F216820F0010041E80502002A39
:10573000F5D12020002184F83D0084F83C1084F845
:105740003E000320BDE8F0810020BDE8F0810000AC
:105750000148FEF7DDBC00BF243D0020B0B5D0F805
:10576000D42200EB8202D2F8C03233B301F00F052D
:105770008C4605EB850100EB810151F8184F64B1AF
:10578000D0F8C8E205EBC5050EEB8505D5F848E075
:10579000B4FBFEF505FB1E4595B10024C3F8144289
:1057A000D2F8C402056935B1D3F8080203F50471D3
:1057B0006246A84700242046B0BD03242046B0BD61
:1057C00000240C6061460022002300F055FE2046B4
:1057D000B0BD0000B0B50446D0F8D40204EB8000A0
:1057E000D0F8C05295B1204600F016FDD4F8D4127E
:1057F00004EB8101D1F8C412C5F80C02CA68D5F8CF
:10580000040205F5037190470020B0BD0320B0BD30
:1058100070B58121044600F04DFC00252046012191
:10582000258700F047FC20468221A4F8785100F03B
:1058300041FCD4F8D402E56404EB8000D0F8C01237
:1058400089B1D0F8C40240688047D4F8D40204F586
:10585000307656F8200001F027F8D4F8D40246F844
:105860002050C4F8BC52002070BD000010B5D0F824
:10587000D41200EB8100D0F8C04284B1D0F8C41239
:1058800079B194F80002FF280BD08B6894F80122BC
:1058900021469847FF2084F80002002010BD032015
:1058A00010BD002010BD0000014640F2B8000A22E1
:1058B000C2F200000A807047F0B581B040F2740770
:1058C000C2F2000704463846822100F04FFB06462C
:1058D0003846012100F04AFB05463846812100F098
:1058E00045FB002E1CBF1021B171002D1CBF4021B3
:1058F000A98000281CBF40218180432140F2740010
:10590000C2F20000218001B0F0BD0000F0B581B00E
:1059100040F27407C2F2000704463846822100F0C4
:1059200025FB06463846012100F020FB0546384697
:10593000812100F01BFB002E1CBF1021B171002D36
:105940001CBF4FF40071A98000281CBF4FF40071E8
:105950008180432140F27400C2F20000218001B036
:10596000F0BD0000F0B581B040F27407C2F200074C
:1059700004463846822100F0F9FA064638460121ED
:1059800000F0F4FA05463846812100F0EFFA002EC7
:105990001CBF1021B171002D1CBF4021A98000281F
:1059A0001CBF40218180432140F27400C2F20000FC
:1059B000218001B0F0BD00002DE9F04104464FF414
:1059C000077000F073FF00284DD04FF407710546B3
:1059D000FAF72EFCD4F8D402402704EB8000C0F87C
:1059E000C052C4F8BC52207C8121002808BF4FF46B
:1059F0000077204602223B46022600F081FC4FF051
:105A000001082046012102223B46A4F8388000F01C
:105A100077FC1020A4F87881A4F84E00204682215B
:105A20000322082300F06CFCD4F8D4020027C5F848
:105A3000047204EB8000D0F8C4020068A4F84C8023
:105A40008047C5F81472C5F81872D5F804223AB127
:105A5000207C98B120460121402300F05DFC002607
:105A60003046BDE8F081D4F8D402002104EB800078
:105A70000226C0F8C0123046BDE8F0812046012160
:105A80004FF4007300F048FC00263046BDE8F0817A
:105A900080B5D0F8D41200EB8101D1F8C01271B1F9
:105AA00090F810C0D1F8042240230121BCF1000F6E
:105AB00008BF4FF4007300F02FFC002080BD0320CE
:105AC00080BD000000290FBF0320D0F8D42200EBD6
:105AD0008200C0F8C41218BF00207047D0F8D4224A
